:060000000A128A11122809
:10000800FE00030EF9000408FA000A08FB00831238
:1000180003137F08FC000A128A11D1280A128A11D8
:1000280015280A128A116521B300AB01AC01AD0194
:10003800AE01AF01B001B101B201F001F101F2016D
:10004800F301F401F501F60183010A128A1101296D
:1000580083120313A601A11F3828A009A109A00A29
:100068000319A10AA601A60AA31F4328A209A309E6
:10007800A20A0319A30A0130A4002408A606A701AE
:10008800A8012008210403197A28A501A50AA11BA3
:10009800592801300310A00DA10DFF3E031D4E2865
:1000A8000130A4002408A5074B2801300310A70D30
:1000B800A80DFF3E031D5A2821082302031D6628A8
:1000C80020082202031C6F282008A2022108031C12
:1000D800A303A302271401300310A10CA00CFF3EB8
:1000E800031D70280130A502031D5928260803198D
:1000F8008228A709A809A70A0319A80A2808A1009D
:100108002708A0000800831203139F149F1C8A2845
:100118001E08A900AA012908AA00A9012908B100F6
:100128002A08B200831603131E0883120313A900BA
:10013800AA012908B1042A08B2043208A10031082A
:10014800A0000030A2002030A3000A128A112C203F
:100158000A128A11831203132008A9002108AA0091
:100168000A30FF000310A90DAA0DFF0BB6282908B5
:10017800AD002A08AE000830A0000030A1002E080B
:10018800A3002D08A2000A128A112C20831203133F
:100198002108AE002008AD0008003C3081000A129A
:1001A8008A1149210A128A1175080319E52873086A
:1001B800F8007208F7000A128A113A210A128A1105
:1001C800ED28013083120313AB070318AC0A003083
:1001D800AC070A30831203132B062C04031DF628E0
:1001E800F401F40A7C08FF007B088A007A0884007E
:1001F800790E8300FE0E7E0E09008316031301128A
:1002080001308500860183160317880189010A12C7
:100218008A1158210A128A110A128A1187200A1291
:100228008A110A128A1122210A128A1183120313CF
:100238003308031D1A290A128A111228831203137C
:10024800AE1B36292E08803AFF0080307F02031D3E
:100258002F2904302D020318362983120313B30102
:10026800B30A080083120313B3010800730883124A
:100278000313B0007208AF0077087207F20078081D
:100288000318780A7307F300080071088312031330
:100298002E06031D512970082D0603195629F5014C
:1002A800F50A0800F5010800831603130108F83958
:1002B8000638810081178112011281118B178B1664
:0402C80008000134F5
:00000001FF
